:020000020000FC
:1000000000E808B900E001BB0FEF07BB02BB10E03E
:1000100030E038BB20B32117E9F3112321F4222368
:1000200011F00C942E00122F0C940A003395339586
:1000300033950C9486003A953A953A950C9486003F
:10004000339533953395339533950C9486003A95D3
:100050003A953A953A953A950C948600213031F0CC
:100060002230F1F0243031F10C940A003430E1F107
:100070003830D1F13130D9F13230C9F1303001F3BB
:100080003330A1F23C30B9F23F3009F33730A9F1F7
:100090003B3099F13D30A1F13E3091F10C940A00D2
:1000A000353011F1393061F1363009F13A3029F14A
:1000B0000C940A003130C1F03230B1F03030A1F090
:1000C0003330A9F0373099F03B3089F03F30A9F058
:1000D0003E3099F03D3089F0343091F0383081F085
:1000E0003C3071F00C940A0033950C9486003395E3
:1000F0003395339533950C9486003A950C9486008D
:100100003A953A953A953A950C94860038BB0C94FA
:020110001300DA
:00000001FF
