:020000020000FC
:1000000000E808B900E001BB0FEF07BB02BB10E03E
:1000100030E038BB05E003BF07E801BF0FE50DBFC7
:1000200004E00EBF20B32117E9F3112321F42223AA
:1000300011F00C941E00122F0C941200213011F0BC
:100040000C941B004AE00CD042E312D04AE008D0E6
:1000500042E30ED04AE004D048EC0AD00C941B00D6
:1000600061E068BB00E002BF52B75417E8F308959F
:1000700060E068BB00E002BF52B75417E8F3089590
:00000001FF
